S01700005361616B7368692070726F6A6563742E7372656332
S11300000C942A000C943F000C943F000C943F0085
S11300100C943F000C943F000C943F000C943F0060
S11300200C943F000C943F000C943F000C943F0050
S11300300C943F000C943F000C943F000C943F0040
S11300400C943F000C943F000C943F000C943F0030
S11300500C943F0011241FBECFE5D4E0DEBFCDBF1A
S113006010E0A0E6B0E0EEE9F2E002C005900D92E7
S1130070A039B107D9F70E94DF000C944D010C940C
S113008000009C01207F33272C5F28BBEFECF7E0B6
S11300903197F1F700C0000098B3945098BB829553
S11300A0807F8C5F88BB8FEC97E00197F1F700C0ED
S11300B0000088B3845088BB08959C01207F3327B7
S11300C02B5F28BBEFECF7E03197F1F700C000009D
S11300D028B3245028BB82959295907F9827807FDF
S11300E098278B5F88BB8FEC97E00197F1F700C0EE
S11300F0000088B3845088BB0895CF93DF93EC014C
S11301008881882339F0219690E00E945D008991CE
S11301108111FACFDF91CF9108950F931F93CF935D
S1130120DF93EC01009781F580E390E00E945D008D
S113013084E090E00E94410022C09E01ADECBCEC42
S11301400E9441018C011695079516950795169501
S113015007959801220F331FC801880F991F880F34
S1130160991F880F991F820F931F9E01281B390B1B
S1130170C901C0960E945D00E8012097F1F686E06F
S113018090E00E94410005C084E090E00E9441009C
S1130190D4CFDF91CF911F910F91089582E090E029
S11301A00E94410088E290E00E9441008CE090E0CF
S11301B00E94410086E090E00E94410008958FEF84
S11301C087BB14BA0E94CE0080E890E00E944100F0
S11301D080E690E00E947D002FEF89E698E12150AF
S11301E080409040E1F700C0000081E090E00E9470
S11301F041008FE99FE00197F1F700C0000080E81B
S113020090E00E94410088E690E00E947D0080EC2E
S113021090E00E94410085E790E00E947D00C0E0EC
S1130220D0E09FEF29E688E1915020408040E1F73B
S113023000C0000081E090E00E9441008FE99FE04F
S11302400197F1F700C0000080E890E00E944100AF
S113025080E890E00E947D0083B3813009F4219608
S113026084EC90E00E944100CE010E948D009FEF3B
S113027029E688E1915020408040E1F700C0000069
S1130280D0CFA29FB001B39FC001A39F01D0B29F62
S1110290700D811D1124911D0895F894FFCF67
S113029E57454C434F4D4500434152205041524B1C
S11302AE494E4720002020202053595354454D00D9
S11302BE4E554D424552204F462043415253000065
S9030000FC
